:100000000C942A000C943F000C943F000C943F0089
:100010000C943F000C943F000C943F000C943F0064
:100020000C943F000C943F000C943F000C943F0054
:100030000C943F000C943F000C943F000C943F0044
:100040000C943F000C943F000C943F000C943F0034
:100050000C943F0011241FBECFE5D8E0DEBFCDBF1A
:1000600010E0A0E6B0E0E0E4F4E302C005900D92F9
:10007000A83BB107D9F70E943C100C941E1A0C94AF
:100080000000EF92FF920F931F937B018C0120E001
:1000900030E040E05FE40E94410388238CF0C80117
:1000A000B70120E030E040E05FE40E94B9010E9427
:1000B000A1039B01AC01205030404040504806C095
:1000C000C801B7010E94A1039B01AC01B901CA019B
:1000D0001F910F91FF90EF900895A0E0B0E0E3E74B
:1000E000F0E00C94E719DC012B01FA019C919230AD
:1000F00008F439C1EB018881823008F433C19430AF
:1001000069F4843009F02FC111969C91119789816F
:10011000981709F428C1A0EAB0E025C1843009F499
:1001200021C18230A9F4923009F01DC19A01AD01BC
:1001300088E0EA010990AE01E90109929E0181502F
:10014000C1F7E201898111969C918923818308C1BD
:10015000923009F407C112962D903C901397EB0151
:100160008A819B811496AD90BD90CD90DC901797BD
:10017000EC80FD800E811F819101281B390BB90194
:1001800037FF04C066277727621B730B6032710547
:100190000CF061C0121613066CF537014801062EEB
:1001A00004C096948794779467940A94D2F721E0D8
:1001B00030E040E050E004C0220F331F441F551FC1
:1001C0006A95D2F721503040404050402E213F21C7
:1001D00040235123211531054105510521F021E02E
:1001E00030E040E050E079018A01E628F72808294C
:1001F00019293CC0232BD1F1260E371E35014601AB
:10020000062E04C096948794779467940A94D2F744
:1002100021E030E040E050E004C0220F331F441FD3
:10022000551F6A95D2F721503040404050402A2156
:100230003B214C215D21211531054105510521F05E
:1002400021E030E040E050E059016A01A628B728DB
:10025000C828D9280BC0821593052CF01C01AA24AC
:10026000BB24650103C0EE24FF24870111969C91F5
:10027000D20111968C91981709F445C0992339F051
:10028000A80197012A193B094C095D0906C0A6017E
:1002900095012E193F09400B510B57FD08C01182E3
:1002A0003382228224833583468357831DC081E0B5
:1002B00081833382228288279927DC01821B930B5A
:1002C000A40BB50B84839583A683B7830DC0220F3F
:1002D000331F441F551F24833583468357838281F0
:1002E000938101979383828324813581468157814D
:1002F000DA01C9010197A109B1098F5F9F4FAF4F83
:10030000BF4328F30BC0918333822282EA0CFB1C8B
:100310000C1D1D1DE482F5820683178383E0808314
:10032000248135814681578157FF1AC0C901AA2708
:1003300097FDA095BA2F81709070A070B0705695FF
:10034000479537952795822B932BA42BB52B848328
:100350009583A683B7838281938101969383828359
:10036000DF0101C0D201CD01CDB7DEB7E2E10C94CF
:10037000031AA0E2B0E0EFEBF1E00C94F31969830B
:100380007A838B839C832D833E834F835887E9E058
:10039000EE2EF12CEC0EFD1ECE010196B7010E944F
:1003A000CA048E010F5E1F4FCE010596B8010E9450
:1003B000CA048A8991E089278A8BC701B801AE01F6
:1003C000475E5F4F0E946D000E94F503A096E6E035
:1003D0000C940F1AA0E2B0E0E0EFF1E00C94F319F6
:1003E00069837A838B839C832D833E834F835887D5
:1003F000F9E0EF2EF12CEC0EFD1ECE010196B701B7
:100400000E94CA048E010F5E1F4FCE010596B801EF
:100410000E94CA04C701B801AE01475E5F4F0E9447
:100420006D000E94F503A096E6E00C940F1AA0E27E
:10043000B0E0EDE1F2E00C94E71969837A838B83F5
:100440009C832D833E834F835887CE010196BE0146
:10045000675F7F4F0E94CA04CE010596BE016F5EA2
:100460007F4F0E94CA049985923088F08989823032
:10047000C8F0943019F4823051F404C0843029F467
:10048000923081F480EA90E0C6C0923049F420E0D6
:100490009A858A89981321E02A87CE010996BBC0E4
:1004A000823049F420E09A858A89981321E02A8BCA
:1004B000CE014196B0C02D843E844F8458886D880B
:1004C0007E888F88988CEE24FF248701AA24BB2481
:1004D000650140E050E060E070E0E0E0F0E0C10184
:1004E00081709070892BE9F0E60CF71C081D191D2E
:1004F0009A01AB012A0D3B1D4C1D5D1D80E090E073
:10050000A0E0B0E0E614F7040805190520F481E046
:1005100090E0A0E0B0E0BA01A901480F591F6A1F9E
:100520007B1FAA0CBB1CCC1CDD1C97FE08C081E005
:1005300090E0A0E0B0E0A82AB92ACA2ADB2A3196C6
:10054000E032F10549F0660C771C881C991C569422
:10055000479437942794C3CFFA85EA892B893C893D
:100560008B859C85280F391F2E5F3F4F17C0CA010E
:1005700081709070892B61F016950795F794E79438
:1005800080E090E0A0E0B0E8E82AF92A0A2B1B2BD3
:1005900076956795579547952F5F3F4F77FDE7CF46
:1005A0000CC0440F551F661F771F17FD4160EE0CEE
:1005B000FF1C001F111F21503040403090E05907B0
:1005C00090E0690790E4790760F32B8F3C8FDB01A3
:1005D000CA018F779070A070B07080349105A1052A
:1005E000B10561F447FD0AC0E114F10401051105EC
:1005F00029F0405C5F4F6F4F7F4F40781A8EFE1797
:1006000011F081E08A8F4D8F5E8F6F8F78A383E02A
:10061000898FCE0149960E94F503A096E2E10C94E1
:10062000031AA8E1B0E0E7E1F3E00C94F319698361
:100630007A838B839C832D833E834F83588789E005
:10064000E82EF12CEC0EFD1ECE010196B7010E94A2
:10065000CA048E010F5E1F4FCE010596B8010E949D
:10066000CA048985823040F08989823028F0C70128
:10067000B8010E94420501C08FEF6896E6E00C9435
:100680000F1AA8E1B0E0E7E4F3E00C94F3196983F2
:100690007A838B839C832D833E834F83588789E0A5
:1006A000E82EF12CEC0EFD1ECE010196B7010E9442
:1006B000CA048E010F5E1F4FCE010596B8010E943D
:1006C000CA048985823040F08989823028F0C701C8
:1006D000B8010E94420501C08FEF6896E6E00C94D5
:1006E0000F1AA8E1B0E0E7E7F3E00C94F31969838F
:1006F0007A838B839C832D833E834F83588789E045
:10070000E82EF12CEC0EFD1ECE010196B7010E94E1
:10071000CA048E010F5E1F4FCE010596B8010E94DC
:10072000CA048985823040F08989823028F0C70167
:10073000B8010E94420501C081E06896E6E00C9491
:100740000F1AACE0B0E0E7EAF3E00C94F719698324
:100750007A838B839C83CE010196BE016B5F7F4FB2
:100760000E94CA048D81823061F1823050F1843060
:1007700021F48E81882351F12EC02F81388537FDD9
:1007800020C06E812F3131051CF06623F9F023C0A3
:100790008EE190E0821B930B29853A854B855C8521
:1007A00004C056954795379527958A95D2F76623C5
:1007B000B1F050954095309521953F4F4F4F5F4F89
:1007C0000EC020E030E040E050E009C02FEF3FEFE6
:1007D0004FEF5FE704C020E030E040E050E8B901AF
:1007E000CA012C96E2E00C94131ADF92EF92FF926A
:1007F0000F931F93FC01E480F58006811781D1805F
:100800008081823048F480E090E0A0E1B0E0E82A06
:10081000F92A0A2B1B2BA5C0843009F49FC0823013
:1008200021F4EE24FF24870105C0E114F104010541
:10083000110519F4E0E0F0E096C0628173819FEF4A
:10084000623879070CF05BC022E83FEF261B370BBC
:100850002A3131052CF020E030E040E050E02AC0A1
:10086000B801A701022E04C0769567955795479564
:100870000A94D2F781E090E0A0E0B0E004C0880FD5
:10088000991FAA1FBB1F2A95D2F70197A109B10989
:100890008E219F21A023B1230097A105B10521F04E
:1008A00081E090E0A0E0B0E09A01AB01282B392B69
:1008B0004A2B5B2BDA01C9018F779070A070B07062
:1008C00080349105A105B10539F427FF09C0205CEA
:1008D0003F4F4F4F5F4F04C0215C3F4F4F4F5F4F23
:1008E000E0E0F0E02030A0E03A07A0E04A07A0E412
:1008F0005A0710F0E1E0F0E079018A0127C0603882
:10090000710564F5FB01E158FF4FD801C7018F77EE
:100910009070A070B07080349105A105B10539F4D4
:10092000E7FE0DC080E490E0A0E0B0E004C08FE3FB
:1009300090E0A0E0B0E0E80EF91E0A1F1B1F17FFB1
:1009400005C016950795F794E794319687E01695BC
:100950000795F794E7948A95D1F705C0EE24FF2414
:100960008701EFEFF0E06E2F679566276795902F70
:100970009F77D794DD24D7948E2F8695492F462BC9
:10098000582F5D29B701CA011F910F91FF90EF9079
:10099000DF900895FC01DB01408151812281622FAB
:1009A0006F7770E0221F2227221F9381892F880FE3
:1009B000822B282F30E0991F9927991F11969C931D
:1009C000119721153105A9F54115510561057105ED
:1009D00011F482E037C082E89FEF13969C938E93C8
:1009E00012979A01AB0167E0220F331F441F551F76
:1009F0006A95D1F783E08C930DC0220F331F441FFB
:100A0000551F12968D919C911397019713969C9365
:100A10008E931297203080E0380780E0480780E40A
:100A2000580758F314962D933D934D935C93179765
:100A300008952F3F310579F4411551056105710580
:100A400019F484E08C93089564FF03C081E08C93D3
:100A500012C01C9210C02F57304013963C932E9317
:100A6000129783E08C9387E0440F551F661F771F12
:100A70008A95D1F7706414964D935D936D937C9332
:100A8000179708951F93DC01FB019C91923008F4A5
:100A900047C08081823008F443C0943051F41196ED
:100AA0001C91843099F58181682F70E0611B710978
:100AB0003FC0843021F0923031F48230B9F181812D
:100AC000882389F12DC011961C9111978230F1F085
:100AD00081811817D9F412962D913C911397828138
:100AE00093818217930794F028173907BCF0149666
:100AF0008D919D910D90BC91A02D248135814681D1
:100B00005781281739074A075B0718F4112341F06A
:100B10000AC082179307A407B50740F4112319F000
:100B200061E070E005C06FEF7FEF02C060E070E051
:100B3000CB011F910895DF93CF93CDB7DEB7A7E226
:100B4000B0E0E7E2F0E0808180648C93A7E2B0E05F
:100B5000E7E2F0E080818F778C93A7E2B0E0E7E2F4
:100B6000F0E080818F7D8C93A7E2B0E0E7E2F0E0D7
:100B700080818C93A6E2B0E0E6E2F0E080818068BC
:100B80008C93A6E2B0E0E6E2F0E080818F7D8C936A
:100B9000A6E2B0E0E6E2F0E08081877F8C93A6E2F7
:100BA000B0E0E6E2F0E080818E7F8C93A6E2B0E0D8
:100BB000E6E2F0E0808182608C93A6E2B0E0E6E2BB
:100BC000F0E0808182608C93CF91DF910895DF9374
:100BD000CF930F92CDB7DEB78983A7E2B0E0E7E20B
:100BE000F0E08081807E8C93A7E2B0E0E7E2F0E065
:100BF00090818981892B8C93A6E2B0E0E6E2F0E057
:100C0000808180648C93E6E2F0E0808182958F7031
:100C1000882F90E0817090700097A9F3A6E2B0E071
:100C2000E6E2F0E0808180618C93E4E2F0E0808194
:100C300091810F90CF91DF910895DF93CF9300D0F2
:100C40000F92CDB7DEB789836A834B8389816A812E
:100C500041E00E94360689816A814B810E943607F5
:100C60000F900F900F90CF91DF910895DF93CF9366
:100C7000CDB7DEB727970FB6F894DEBF0FBECDBF56
:100C800089836A834B838B81813009F06FC08981AE
:100C9000282F30E03F832E838E819F818130910504
:100CA00049F12E813F81223031052CF48E819F81C4
:100CB000009761F0D2C02E813F812230310571F161
:100CC0008E819F8183309105E9F1C7C0AAE3B0E02E
:100CD000EAE3F0E08081482F8A81282F30E081E02C
:100CE00090E0022E02C0880F991F0A94E2F7842B2D
:100CF0008C93B3C0A7E3B0E0E7E3F0E08081482F36
:100D00008A81282F30E081E090E0022E02C0880F17
:100D1000991F0A94E2F7842B8C939FC0A4E3B0E060
:100D2000E4E3F0E08081482F8A81282F30E081E0E1
:100D300090E0022E02C0880F991F0A94E2F7842BDC
:100D40008C938BC0A1E3B0E0E1E3F0E08081482F19
:100D50008A81282F30E081E090E0022E02C0880FC7
:100D6000991F0A94E2F7842B8C9377C08B81882398
:100D700009F073C08981282F30E03D832C838C815A
:100D80009D818130910559F12C813D8122303105C1
:100D90002CF48C819D81009769F05FC02C813D818E
:100DA0002230310589F18C819D818330910509F4D0
:100DB00040C053C0AAE3B0E0EAE3F0E08081482FEE
:100DC0008A81282F30E081E090E0022E02C0880F57
:100DD000991F0A94E2F7809584238C933EC0A7E381
:100DE000B0E0E7E3F0E08081482F8A81282F30E0EF
:100DF00081E090E0022E02C0880F991F0A94E2F76A
:100E0000809584238C9329C0A4E3B0E0E4E3F0E070
:100E10008081482F8A81282F30E081E090E0022EE7
:100E200002C0880F991F0A94E2F7809584238C935F
:100E300014C0A1E3B0E0E1E3F0E08081482F8A81B3
:100E4000282F30E081E090E0022E02C0880F991F29
:100E50000A94E2F7809584238C9327960FB6F89432
:100E6000DEBF0FBECDBFCF91DF910895DF93CF934B
:100E7000CDB7DEB727970FB6F894DEBF0FBECDBF54
:100E800089836A834B838B81813009F06FC08981AC
:100E9000282F30E03F832E838E819F818130910502
:100EA00049F12E813F81223031052CF48E819F81C2
:100EB000009761F0D2C02E813F812230310571F15F
:100EC0008E819F8183309105E9F1C7C0ABE3B0E02B
:100ED000EBE3F0E08081482F8A81282F30E081E029
:100EE00090E0022E02C0880F991F0A94E2F7842B2B
:100EF0008C93B3C0A8E3B0E0E8E3F0E08081482F32
:100F00008A81282F30E081E090E0022E02C0880F15
:100F1000991F0A94E2F7842B8C939FC0A5E3B0E05D
:100F2000E5E3F0E08081482F8A81282F30E081E0DE
:100F300090E0022E02C0880F991F0A94E2F7842BDA
:100F40008C938BC0A2E3B0E0E2E3F0E08081482F15
:100F50008A81282F30E081E090E0022E02C0880FC5
:100F6000991F0A94E2F7842B8C9377C08B81882396
:100F700009F073C08981282F30E03D832C838C8158
:100F80009D818130910559F12C813D8122303105BF
:100F90002CF48C819D81009769F05FC02C813D818C
:100FA0002230310589F18C819D818330910509F4CE
:100FB00040C053C0ABE3B0E0EBE3F0E08081482FEA
:100FC0008A81282F30E081E090E0022E02C0880F55
:100FD000991F0A94E2F7809584238C933EC0A8E37E
:100FE000B0E0E8E3F0E08081482F8A81282F30E0EC
:100FF00081E090E0022E02C0880F991F0A94E2F768
:10100000809584238C9329C0A5E3B0E0E5E3F0E06C
:101010008081482F8A81282F30E081E090E0022EE5
:1010200002C0880F991F0A94E2F7809584238C935D
:1010300014C0A2E3B0E0E2E3F0E08081482F8A81AF
:10104000282F30E081E090E0022E02C0880F991F27
:101050000A94E2F7809584238C9327960FB6F89430
:10106000DEBF0FBECDBFCF91DF910895DF93CF9349
:1010700000D000D0CDB7DEB789836A838981282F5D
:1010800030E03C832B838B819C8181309105D1F0B2
:101090002B813C81223031052CF48B819C8100977F
:1010A00061F01EC02B813C812230310581F08B81A3
:1010B0009C818330910581F013C0EAE3F0E08A81DE
:1010C00080830EC0E7E3F0E08A81808309C0E4E317
:1010D000F0E08A81808304C0E1E3F0E08A818083CC
:1010E0000F900F900F900F90CF91DF910895DF93A5
:1010F000CF9300D000D0CDB7DEB789836A838981D2
:10110000282F30E03C832B838B819C81813091059B
:10111000D1F02B813C81223031052CF48B819C81D4
:10112000009761F01EC02B813C812230310581F097
:101130008B819C818330910581F013C0EBE3F0E05B
:101140008A8180830EC0E8E3F0E08A81808309C051
:10115000E5E3F0E08A81808304C0E2E3F0E08A8185
:1011600080830F900F900F900F90CF91DF91089593
:10117000DF93CF9300D000D00F92CDB7DEB78A8334
:101180006B838A81282F30E03D832C834C815D81E5
:101190004130510541F18C819D818230910534F4BB
:1011A0002C813D812115310561F052C04C815D815A
:1011B0004230510551F18C819D8183309105B9F107
:1011C00047C0E9E3F0E08081282F30E08B81882F51
:1011D00090E0A90102C0559547958A95E2F7CA01AA
:1011E0008170898335C0E6E3F0E08081282F30E00C
:1011F0008B81882F90E0A90102C0559547958A956B
:10120000E2F7CA018170898323C0E3E3F0E08081C3
:10121000282F30E08B81882F90E0A90102C05595DE
:1012200047958A95E2F7CA018170898311C0E0E38E
:10123000F0E08081282F30E08B81882F90E0A90199
:1012400002C0559547958A95E2F7CA018170898356
:1012500089810F900F900F900F900F90CF91DF9199
:101260000895DF93CF9300D000D0CDB7DEB7898348
:101270006A838981282F30E03C832B838B819C817A
:101280008130910549F12B813C81223031052CF4CC
:101290008B819C81009761F05AC02B813C81223068
:1012A000310571F18B819C8183309105E9F14FC04B
:1012B000ABE3B0E0EBE3F0E08081482F8A81282F98
:1012C00030E081E090E0022E02C0880F991F0A945E
:1012D000E2F784278C933BC0A8E3B0E0E8E3F0E0BA
:1012E0008081482F8A81282F30E081E090E0022E13
:1012F00002C0880F991F0A94E2F784278C9327C0B5
:10130000A5E3B0E0E5E3F0E08081482F8A81282F53
:1013100030E081E090E0022E02C0880F991F0A940D
:10132000E2F784278C9313C0A2E3B0E0E2E3F0E09D
:101330008081482F8A81282F30E081E090E0022EC2
:1013400002C0880F991F0A94E2F784278C930F90AC
:101350000F900F900F90CF91DF910895DF93CF936F
:10136000CDB7DEB781E060E040E00E94360681E064
:1013700061E040E00E94360681E062E040E00E94C9
:10138000360681E063E040E00E94360681E064E0DA
:1013900041E00E94360681E065E041E00E943606A9
:1013A00081E066E041E00E94360681E067E041E0CE
:1013B0000E94360681E06FEF0E947708CF91DF919F
:1013C0000895DF93CF93CDB7DEB761970FB6F8944A
:1013D000DEBF0FBECDBF198A188A1F8684E0898BB5
:1013E000AAC081E0698940E00E943607188A97C048
:1013F00081E068890E94B808882309F08DC0888937
:10140000482F50E08989882F90E09C01245030407B
:10141000CA01880F991F880F991F820F931FFC0123
:10142000E855FF4F80818F8781E068890E94B80866
:101430008823D1F380E090E0A0E0B0E48B879C8724
:10144000AD87BE876B857C858D859E8520E030E0ED
:101450004AEF54E40E941702DC01CB018F83988786
:10146000A987BA876F81788589859A8520E030E0E1
:1014700040E85FE30E94710388232CF481E090E050
:101480009E838D833FC06F81788589859A8520E012
:101490003FEF4FE757E40E94110318164CF56B8598
:1014A0007C858D859E8520E030E040E251E40E94FD
:1014B0001702DC01CB01BC01CD010E944100DC011F
:1014C000CB019E838D830FC088EC90E09C838B833F
:1014D0008B819C810197F1F79C838B838D819E8109
:1014E00001979E838D838D819E81009769F714C03B
:1014F0006F81788589859A850E944100DC01CB0146
:101500009E838D838D819E819A83898389819A812F
:101510000197F1F79A83898388898F5F888B8889FF
:10152000843008F465CF81E0698941E00E94360784
:1015300089898F5F898B8989883008F452CF8F859C
:1015400061960FB6F894DEBF0FBECDBFCF91DF918D
:101550000895DF93CF93CDB7DEB7E8970FB6F89431
:10156000DEBF0FBECDBF82E06FEF0E94360883E082
:1015700060E041E00E94360683E061E041E00E94C5
:10158000360683E062E041E00E94360680E090E0AB
:10159000A8E4B2E48DAB9EABAFABB8AF6DA97EA9AA
:1015A0008FA998AD20E030E04AEF54E40E94170282
:1015B000DC01CB0189AB9AABABABBCAB69A97AA917
:1015C0008BA99CA920E030E040E85FE30E94710312
:1015D00088232CF481E090E098AB8FA73FC069A9E5
:1015E0007AA98BA99CA920E03FEF4FE757E40E941E
:1015F000110318164CF56DA97EA98FA998AD20E0AE
:1016000030E040E251E40E941702DC01CB01BC0152
:10161000CD010E944100DC01CB0198AB8FA70FC028
:1016200088EC90E09EA78DA78DA59EA50197F1F768
:101630009EA78DA78FA598A9019798AB8FA78FA577
:1016400098A9009769F714C069A97AA98BA99CA9E0
:101650000E944100DC01CB0198AB8FA78FA598A910
:101660009CA78BA78BA59CA50197F1F79CA78BA79F
:1016700088E390E00E94D30D80E090E0A0E8BFE313
:101680008FA398A7A9A7BAA76FA178A589A59AA59E
:1016900020E030E04AEF54E40E941702DC01CB0165
:1016A0008BA39CA3ADA3BEA36BA17CA18DA19EA186
:1016B00020E030E040E85FE30E94710388232CF4CF
:1016C00081E090E09AA389A33FC06BA17CA18DA18A
:1016D0009EA120E03FEF4FE757E40E941103181648
:1016E0004CF56FA178A589A59AA520E030E040E2ED
:1016F00051E40E941702DC01CB01BC01CD010E9424
:101700004100DC01CB019AA389A30FC088EC90E0D3
:1017100098A38F8F8F8D98A10197F1F798A38F8F42
:1017200089A19AA101979AA389A389A19AA1009757
:1017300069F714C06BA17CA18DA19EA10E944100FC
:10174000DC01CB019AA389A389A19AA19E8F8D8FD9
:101750008D8D9E8D0197F1F79E8F8D8F8CE090E09F
:101760000E94D30D80E090E0A0E8BFE3898F9A8FBC
:10177000AB8FBC8F698D7A8D8B8D9C8D20E030E096
:101780004AEF54E40E941702DC01CB018D8B9E8B43
:10179000AF8BB88F6D897E898F89988D20E030E07E
:1017A00040E85FE30E94710388232CF481E090E01D
:1017B0009C8B8B8B3FC06D897E898F89988D20E0B3
:1017C0003FEF4FE757E40E94110318164CF5698D5F
:1017D0007A8D8B8D9C8D20E030E040E251E40E94B8
:1017E0001702DC01CB01BC01CD010E944100DC01EC
:1017F000CB019C8B8B8B0FC088EC90E09A8B898BF4
:1018000089899A890197F1F79A8B898B8B899C89B1
:1018100001979C8B8B8B8B899C89009769F714C0EF
:101820006D897E898F89988D0E944100DC01CB01F2
:101830009C8B8B8B8B899C89988B8F878F859889C4
:101840000197F1F7988B8F8781E090E00E94D30D8C
:1018500080E090E0A0E0B0E48B879C87AD87BE87F6
:101860006B857C858D859E8520E030E04AEF54E4D1
:101870000E941702DC01CB018F839887A987BA8762
:101880006F81788589859A8520E030E040E85FE3C4
:101890000E94710388232CF481E090E09E838D8365
:1018A0003FC06F81788589859A8520E03FEF4FE7BB
:1018B00057E40E94110318164CF56B857C858D85C5
:1018C0009E8520E030E040E251E40E941702DC01F6
:1018D000CB01BC01CD010E944100DC01CB019E8304
:1018E0008D830FC088EC90E09C838B838B819C81DF
:1018F0000197F1F79C838B838D819E8101979E8355
:101900008D838D819E81009769F714C06F817885E2
:1019100089859A850E944100DC01CB019E838D83DD
:101920008D819E819A83898389819A810197F1F7BC
:101930009A838983E8960FB6F894DEBF0FBECDBFB9
:10194000CF91DF910895DF93CF9300D0CDB7DEB76D
:1019500089836A838981882339F48A81882F90E07A
:1019600080589F4F0E94D30D8981813039F48A813C
:10197000882F90E080549F4F0E94D30D0F900F90BE
:10198000CF91DF910895DF93CF93CDB7DEB76D97F9
:101990000FB6F894DEBF0FBECDBF8D8F83E060E041
:1019A00041E00E94360783E061E040E00E94360794
:1019B00082E06D8D0E94770883E062E041E00E9442
:1019C000360780E090E0A0E8BFE3898F9A8FAB8F65
:1019D000BC8F698D7A8D8B8D9C8D20E030E04AEF35
:1019E00054E40E941702DC01CB018D8B9E8BAF8BE0
:1019F000B88F6D897E898F89988D20E030E040E82E
:101A00005FE30E94710388232CF481E090E09C8BBB
:101A10008B8B3FC06D897E898F89988D20E03FEF49
:101A20004FE757E40E94110318164CF5698D7A8D23
:101A30008B8D9C8D20E030E040E251E40E94170243
:101A4000DC01CB01BC01CD010E944100DC01CB01D6
:101A50009C8B8B8B0FC088EC90E09A8B898B89894B
:101A60009A890197F1F79A8B898B8B899C890197C9
:101A70009C8B8B8B8B899C89009769F714C06D892F
:101A80007E898F89988D0E944100DC01CB019C8B5F
:101A90008B8B8B899C89988B8F878F8598890197F1
:101AA000F1F7988B8F8783E062E040E00E94360771
:101AB00080E090E0A0E8BFE38B879C87AD87BE877E
:101AC0006B857C858D859E8520E030E04AEF54E46F
:101AD0000E941702DC01CB018F839887A987BA8700
:101AE0006F81788589859A8520E030E040E85FE362
:101AF0000E94710388232CF481E090E09E838D8303
:101B00003FC06F81788589859A8520E03FEF4FE758
:101B100057E40E94110318164CF56B857C858D8562
:101B20009E8520E030E040E251E40E941702DC0193
:101B3000CB01BC01CD010E944100DC01CB019E83A1
:101B40008D830FC088EC90E09C838B838B819C817C
:101B50000197F1F79C838B838D819E8101979E83F2
:101B60008D838D819E81009769F714C06F81788580
:101B700089859A850E944100DC01CB019E838D837B
:101B80008D819E819A83898389819A810197F1F75A
:101B90009A8389836D960FB6F894DEBF0FBECDBFD2
:101BA000CF91DF910895DF93CF93CDB7DEB76D97D7
:101BB0000FB6F894DEBF0FBECDBF8D8F83E060E01F
:101BC00040E00E94360783E061E040E00E94360773
:101BD00082E06D8D0E94770883E062E041E00E9420
:101BE000360780E090E0A0E8BFE3898F9A8FAB8F43
:101BF000BC8F698D7A8D8B8D9C8D20E030E04AEF13
:101C000054E40E941702DC01CB018D8B9E8BAF8BBD
:101C1000B88F6D897E898F89988D20E030E040E80B
:101C20005FE30E94710388232CF481E090E09C8B99
:101C30008B8B3FC06D897E898F89988D20E03FEF27
:101C40004FE757E40E94110318164CF5698D7A8D01
:101C50008B8D9C8D20E030E040E251E40E94170221
:101C6000DC01CB01BC01CD010E944100DC01CB01B4
:101C70009C8B8B8B0FC088EC90E09A8B898B898929
:101C80009A890197F1F79A8B898B8B899C890197A7
:101C90009C8B8B8B8B899C89009769F714C06D890D
:101CA0007E898F89988D0E944100DC01CB019C8B3D
:101CB0008B8B8B899C89988B8F878F8598890197CF
:101CC000F1F7988B8F8783E062E040E00E9436074F
:101CD00080E090E0A0E8BFE38B879C87AD87BE875C
:101CE0006B857C858D859E8520E030E04AEF54E44D
:101CF0000E941702DC01CB018F839887A987BA87DE
:101D00006F81788589859A8520E030E040E85FE33F
:101D10000E94710388232CF481E090E09E838D83E0
:101D20003FC06F81788589859A8520E03FEF4FE736
:101D300057E40E94110318164CF56B857C858D8540
:101D40009E8520E030E040E251E40E941702DC0171
:101D5000CB01BC01CD010E944100DC01CB019E837F
:101D60008D830FC088EC90E09C838B838B819C815A
:101D70000197F1F79C838B838D819E8101979E83D0
:101D80008D838D819E81009769F714C06F8178855E
:101D900089859A850E944100DC01CB019E838D8359
:101DA0008D819E819A83898389819A810197F1F738
:101DB0009A8389836D960FB6F894DEBF0FBECDBFB0
:101DC000CF91DF910895DF93CF93CDB7DEB72E97F4
:101DD0000FB6F894DEBF0FBECDBF81E00E94D30DD9
:101DE00080E090E0A0E0B0E48B879C87AD87BE8761
:101DF0006B857C858D859E8520E030E04AEF54E43C
:101E00000E941702DC01CB018F839887A987BA87CC
:101E10006F81788589859A8520E030E040E85FE32E
:101E20000E94710388232CF481E090E09E838D83CF
:101E30003FC06F81788589859A8520E03FEF4FE725
:101E400057E40E94110318164CF56B857C858D852F
:101E50009E8520E030E040E251E40E941702DC0160
:101E6000CB01BC01CD010E944100DC01CB019E836E
:101E70008D830FC088EC90E09C838B838B819C8149
:101E80000197F1F79C838B838D819E8101979E83BF
:101E90008D838D819E81009769F714C06F8178854D
:101EA00089859A850E944100DC01CB019E838D8348
:101EB0008D819E819A83898389819A810197F1F727
:101EC0009A83898380E80E94D30D2E960FB6F894EA
:101ED000DEBF0FBECDBFCF91DF910895DF93CF93CB
:101EE00000D0CDB7DEB79A8389830BC0E981FA8130
:101EF000208189819A8101969A838983822F0E9409
:101F0000C30CE981FA818081882381F70F900F90BB
:101F1000CF91DF910895DF93CF9300D000D000D010
:101F2000CDB7DEB79E838D831C821B821A821982F5
:101F300029C08D819E812AE030E0B9010E94D31929
:101F40008B838B81882319F489818F5F89838C81AE
:101F5000882F90E09C01220F331FC901880F991F21
:101F6000880F991F820F931F982F8B81890F8C8365
:101F70008D819E812AE030E0B9010E94D319CB0106
:101F80009E838D838D819E81009799F61DC08C81E3
:101F90009AE0692F0E94C719892F8B838B81805DFE
:101FA0000E94C30C8C819AE0692F0E94C7198C8310
:101FB0001A8206C080E30E94C30C8A818F5F8A83E5
:101FC0009A8189819817B0F38C81823000F7269628
:101FD0000FB6F894DEBF0FBECDBFCF91DF9108954D
:101FE000DF93CF930F92CDB7DEB789830E949B0515
:101FF00089810E94E7050F90CF91DF910895DF93CB
:10200000CF9300D00F92CDB7DEB789836A834B831D
:1020100089816A8141E00E94360689816A814B810B
:102020000E9436070F900F900F90CF91DF91089587
:10203000DF93CF9300D0CDB7DEB789836A838981E0
:102040006A8141E00E94360689816A810E943109D5
:102050000F900F90CF91DF910895DF93CF930F9260
:10206000CDB7DEB789830E949B0589810E94E70571
:102070000F90CF91DF9108950F931F93DF93CF932C
:10208000CDB7DEB7CC5FD0400FB6F894DEBF0FBE41
:10209000CDBFFE01E956FF4F82ED8083CE01885609
:1020A0009F4FC652DF4F99838883CA5DD04020E698
:1020B00030E0C452DF4F39832883CC5DD0403FE00D
:1020C000C252DF4F3883CE5DD040C452DF4FE8812B
:1020D000F981CC5DD0400080C452DF4F2881398126
:1020E000CC5DD0402F5F3F4FC452DF4F39832883F0
:1020F000CC5DD040C652DF4FE881F981CA5DD04047
:102100000082C652DF4F28813981CA5DD0402F5FDF
:102110003F4FC652DF4F39832883CA5DD040C25239
:10212000DF4F3881CE5DD0403150C252DF4F38830F
:10213000CE5DD040C252DF4F8881CE5DD040882333
:1021400021F6CE0189559F4FC152DF4F9983888375
:10215000CF5DD040EFE6F0E0CF51DF4FF983E88369
:10216000C15ED040F7E0CD51DF4FF883C35ED04071
:10217000CF51DF4FE881F981C15ED0400080CF515F
:10218000DF4F28813981C15ED0402F5F3F4FCF5153
:10219000DF4F39832883C15ED040C152DF4FE881D1
:1021A000F981CF5DD0400082C152DF4F2881398153
:1021B000CF5DD0402F5F3F4FC152DF4F398328831F
:1021C000CF5DD040CD51DF4F3881C35ED04031501C
:1021D000CD51DF4F3883C35ED040CD51DF4F888172
:1021E000C35ED040882321F6CE0182559F4FCC514B
:1021F000DF4F99838883C45ED040E6E7F0E0CA51A0
:10220000DF4FF983E883C65ED040F7E0C851DF4F67
:10221000F883C85ED040CA51DF4FE881F981C65EBD
:10222000D0400080CA51DF4F28813981C65ED0403E
:102230002F5F3F4FCA51DF4F39832883C65ED0409E
:10224000CC51DF4FE881F981C45ED0400082CC518F
:10225000DF4F28813981C45ED0402F5F3F4FCC5182
:10226000DF4F39832883C45ED040C851DF4F3881A7
:10227000C85ED0403150C851DF4F3883C85ED0406F
:10228000C851DF4F8881C85ED040882321F6CE0137
:102290008B549F4FC751DF4F99838883C95ED040CD
:1022A000EDE7F0E0C551DF4FF983E883CB5ED04026
:1022B000F6E0C351DF4FF883CD5ED040C551DF4F0C
:1022C000E881F981CB5ED0400080C551DF4F288185
:1022D0003981CB5ED0402F5F3F4FC551DF4F3983EF
:1022E0002883CB5ED040C751DF4FE881F981C95EBA
:1022F000D0400082C751DF4F28813981C95ED0406C
:102300002F5F3F4FC751DF4F39832883C95ED040CD
:10231000C351DF4F3881CD5ED0403150C351DF4FC4
:102320003883CD5ED040C351DF4F8881CD5ED04031
:10233000882321F6CE0185549F4FC251DF4F9983E8
:102340008883CE5ED040E3E8F0E0C051DF4FF983F0
:10235000E883C05FD040F7E0CE50DF4FF883C25F24
:10236000D040C051DF4FE881F981C05FD04000808C
:10237000C051DF4F28813981C05FD0402F5F3F4F70
:10238000C051DF4F39832883C05FD040C251DF4F37
:10239000E881F981CE5ED0400082C251DF4F2881B2
:1023A0003981CE5ED0402F5F3F4FC251DF4F39831E
:1023B0002883CE5ED040CE50DF4F3881C25FD04000
:1023C0003150CE50DF4F3883C25FD040CE50DF4F08
:1023D0008881C25FD040882321F6CE018E539F4F63
:1023E000CD50DF4F99838883C35FD040EAE8F0E0A7
:1023F000CB50DF4FF983E883C55FD040F9E0C95087
:10240000DF4FF883C75FD040CB50DF4FE881F981C1
:10241000C55FD0400080CB50DF4F28813981C55F38
:10242000D0402F5F3F4FCB50DF4F39832883C55FAC
:10243000D040CD50DF4FE881F981C35FD0400082AA
:10244000CD50DF4F28813981C35FD0402F5F3F4F90
:10245000CD50DF4F39832883C35FD040C950DF4F51
:102460003881C75FD0403150C950DF4F3883C75FD4
:10247000D040C950DF4F8881C75FD040882321F604
:10248000CE0185539F4FC850DF4F99838883C85F23
:10249000D040E3E9F0E0C650DF4FF983E883CA5F3C
:1024A000D040FDE0C450DF4FF883CC5FD040C65031
:1024B000DF4FE881F981CA5FD0400080C650DF4F0E
:1024C00028813981CA5FD0402F5F3F4FC650DF4F10
:1024D00039832883CA5FD040C850DF4FE881F98133
:1024E000C85FD0400082C850DF4F28813981C85F63
:1024F000D0402F5F3F4FC850DF4F39832883C85FDC
:10250000D040C450DF4F3881CC5FD0403150C450F0
:10251000DF4F3883CC5FD040C450DF4F8881CC5F21
:10252000D040882321F6FE01EB56FF4F1182108226
:10253000FE01ED56FF4F11821082FE01EE56FF4F55
:102540001082FE01EF56FF4F1082FE01E057FF4F51
:1025500010820E94A90A0E94AE090E94E30E1FC4C5
:1025600080E060E00E94A30CCE0188569F4F0E943D
:102570006E0F81E060E00E94A30CFE01ED56FF4F5C
:1025800011821082FE01EF56FF4F108204C10E949B
:10259000E109FE01EE56FF4F8083FE01EE56FF4F2C
:1025A0008081882309F4F7C0FE01EE56FF4F808139
:1025B000803308F4F0C0FE01EE56FF4F80818A336D
:1025C00008F0E9C0DE01AE56BF4FFE01EE56FF4FE8
:1025D000808180538C93FE01EE56FF4F8081805D99
:1025E0000E94C30CFE01EF56FF4F8081882F90E0C0
:1025F0009C01220F331FC901880F991F880F991F53
:10260000820F931F982FDE01AF56BF4FFE01EE568B
:10261000FF4F8081890F8C93FE01E757FF4F80E0C9
:1026200090E0AAEFB4E480839183A283B3838E0108
:102630000B571F4FFE01E757FF4F60817181828169
:10264000938120E030E04AEF54E40E941702DC015D
:10265000CB01F80180839183A283B383FE01EB5702
:10266000FF4F608171818281938120E030E040E8FA
:102670005FE30E947103882344F4FE01ED57FF4F8E
:1026800081E090E09183808364C0FE01EB57FF4FAF
:10269000608171818281938120E03FEF4FE757E4B1
:1026A0000E94110318160CF043C0FE01E757FF4FBC
:1026B000608171818281938120E030E040E251E4C9
:1026C0000E941702DC01CB018E010D571F4FBC0188
:1026D000CD010E944100DC01CB01F8019183808390
:1026E0001FC0FE01EF57FF4F88EC90E0918380837D
:1026F000FE01EF57FF4F808191810197F1F7FE01B5
:10270000EF57FF4F91838083DE01AD57BF4FFE012E
:10271000ED57FF4F80819181019711969C938E9385
:10272000FE01ED57FF4F808191810097D1F627C0C0
:102730008E010D571F4FFE01EB57FF4F60817181D6
:10274000828193810E944100DC01CB01F8019183D9
:102750008083DE01A158BF4FFE01ED57FF4F8081FE
:1027600091818D939C93FE01E158FF4F808191816F
:102770000197F1F7FE01E158FF4F91838083DE015D
:10278000AD56BF4FFE01ED56FF4F808191810196FE
:1027900011969C938E93FE01ED56FF4F808191819F
:1027A000843091050CF4F3CEFE01E956FF4FDE01B3
:1027B000AF56BF4F90818C91981709F073C1FE01FD
:1027C000E558FF4F80E090E4ACE9B5E48083918365
:1027D000A283B3838E0109581F4FFE01E558FF4FB6
:1027E000608171818281938120E030E04AEF54E47E
:1027F0000E941702DC01CB01F80180839183A28340
:10280000B383FE01E958FF4F60817181828193811A
:1028100020E030E040E85FE30E947103882344F445
:10282000FE01EB58FF4F81E090E09183808364C00C
:10283000FE01E958FF4F608171818281938120E020
:102840003FEF4FE757E40E94110318160CF043C006
:10285000FE01E558FF4F608171818281938120E004
:1028600030E040E251E40E941702DC01CB018E010E
:102870000B581F4FBC01CD010E944100DC01CB0170
:10288000F801918380831FC0FE01ED58FF4F88EC53
:1028900090E091838083FE01ED58FF4F808191810C
:1028A0000197F1F7FE01ED58FF4F91838083DE0120
:1028B000AB58BF4FFE01EB58FF4F808191810197CC
:1028C00011969C938E93FE01EB58FF4F808191816E
:1028D0000097D1F627C08E010B581F4FFE01E95813
:1028E000FF4F60817181828193810E944100DC01F0
:1028F000CB01F80191838083DE01AF58BF4FFE0109
:10290000EB58FF4F808191818D939C93FE01EF588E
:10291000FF4F808191810197F1F7FE01EF58FF4F42
:10292000918380830E94E30EFE01E359FF4F80E014
:1029300090E4ACE9B5E480839183A283B3838E01F4
:1029400007591F4FFE01E359FF4F6081718182815A
:10295000938120E030E04AEF54E40E941702DC014A
:10296000CB01F80180839183A283B383FE01E759F1
:10297000FF4F608171818281938120E030E040E8E7
:102980005FE30E947103882344F4FE01E959FF4F7D
:1029900081E090E09183808364C0FE01E759FF4F9E
:1029A000608171818281938120E03FEF4FE757E49E
:1029B0000E94110318160CF043C0FE01E359FF4FAB
:1029C000608171818281938120E030E040E251E4B6
:1029D0000E941702DC01CB018E0109591F4FBC0177
:1029E000CD010E944100DC01CB01F801918380837D
:1029F0001FC0FE01EB59FF4F88EC90E0918380836C
:102A0000FE01EB59FF4F808191810197F1F7FE01A3
:102A1000EB59FF4F91838083DE01A959BF4FFE011F
:102A2000E959FF4F80819181019711969C938E9374
:102A3000FE01E959FF4F808191810097D1F627C0AF
:102A40008E0109591F4FFE01E759FF4F60817181C7
:102A5000828193810E944100DC01CB01F8019183C6
:102A60008083DE01AD59BF4FFE01E959FF4F8081E0
:102A700091818D939C93FE01ED59FF4F808191814F
:102A80000197F1F7FE01ED59FF4F91838083CE014D
:102A90008E539F4F0E946E0FFE01E057FF4F81E063
:102AA00080837DC1FE01E15AFF4F80E090E4ACE9F4
:102AB000B5E480839183A283B3838E01055A1F4FAF
:102AC000FE01E15AFF4F608171818281938120E094
:102AD00030E04AEF54E40E941702DC01CB01F80118
:102AE00080839183A283B383FE01E55AFF4F608107
:102AF00071818281938120E030E040E85FE30E94B1
:102B00007103882344F4FE01E75AFF4F81E090E00F
:102B10009183808364C0FE01E55AFF4F608171811B
:102B20008281938120E03FEF4FE757E40E94110339
:102B300018160CF043C0FE01E15AFF4F608171810D
:102B40008281938120E030E040E251E40E9417024C
:102B5000DC01CB018E01075A1F4FBC01CD010E9441
:102B60004100DC01CB01F801918380831FC0FE018D
:102B7000E95AFF4F88EC90E091838083FE01E95A87
:102B8000FF4F808191810197F1F7FE01E95AFF4FD4
:102B900091838083DE01A75ABF4FFE01E75AFF4FA2
:102BA00080819181019711969C938E93FE01E75A43
:102BB000FF4F808191810097D1F627C08E01075A7F
:102BC0001F4FFE01E55AFF4F608171818281938121
:102BD0000E944100DC01CB01F80191838083DE017A
:102BE000AB5ABF4FFE01E75AFF4F808191818D9311
:102BF0009C93FE01EB5AFF4F808191810197F1F781
:102C0000FE01EB5AFF4F918380830E94E30EFE0189
:102C1000EF5AFF4F80E090E4ACE9B5E48083918304
:102C2000A283B3838E01035B1F4FFE01EF5AFF4F58
:102C3000608171818281938120E030E04AEF54E429
:102C40000E941702DC01CB01F80180839183A283EB
:102C5000B383FE01E35BFF4F6081718182819381C9
:102C600020E030E040E85FE30E947103882344F4F1
:102C7000FE01E55BFF4F81E090E09183808364C0BB
:102C8000FE01E35BFF4F608171818281938120E0CF
:102C90003FEF4FE757E40E94110318160CF043C0B2
:102CA000FE01EF5AFF4F608171818281938120E0A4
:102CB00030E040E251E40E941702DC01CB018E01BA
:102CC000055B1F4FBC01CD010E944100DC01CB011F
:102CD000F801918380831FC0FE01E75BFF4F88EC02
:102CE00090E091838083FE01E75BFF4F80819181BB
:102CF0000197F1F7FE01E75BFF4F91838083DE01CF
:102D0000A55BBF4FFE01E55BFF4F8081918101977D
:102D100011969C938E93FE01E55BFF4F808191811C
:102D20000097D1F627C08E01055B1F4FFE01E35BC4
:102D3000FF4F60817181828193810E944100DC019B
:102D4000CB01F80191838083DE01A95BBF4FFE01B7
:102D5000E55BFF4F808191818D939C93FE01E95B40
:102D6000FF4F808191810197F1F7FE01E95BFF4FF1
:102D700091838083CE0185549F4F0E946E0FDE01A8
:102D8000AB56BF4FFE01EB56FF4F808191810196FC
:102D900011969C938E93FE01E057FF4F1082FE0127
:102DA000EB56FF4F80819181833091053CF4FE0109
:102DB000E057FF4F8081882309F4D2CBFE01EB5608
:102DC000FF4F80819181833091050CF406C1FE0193
:102DD000E057FF4F8081882309F0FFC0FE01ED5BC3
:102DE000FF4F80E090E4ACE9B5E480839183A28357
:102DF000B3838E01015C1F4FFE01ED5BFF4F6081CD
:102E000071818281938120E030E04AEF54E40E9496
:102E10001702DC01CB01F80180839183A283B38385
:102E2000FE01FF96608171818281938120E030E014
:102E300040E85FE30E94710388232CF481E090E076
:102E40009EAF8DAF46C0FE01FF9660817181828189
:102E5000938120E03FEF4FE757E40E9411031816DB
:102E600064F5FE01ED5BFF4F60817181828193818A
:102E700020E030E040E251E40E941702DC01CB0187
:102E8000BC01CD010E944100DC01CB019EAF8DAFA2
:102E90000FC088EC90E09CAF8BAF8BAD9CAD0197E1
:102EA000F1F79CAF8BAF8DAD9EAD01979EAF8DAF0F
:102EB0008DAD9EAD009769F716C0FE01FF9660814B
:102EC0007181828193810E944100DC01CB019EAF20
:102ED0008DAF8DAD9EAD9AAF89AF89AD9AAD01979B
:102EE000F1F79AAF89AF0E94E30E80E090E4ACE97D
:102EF000B5E48DAB9EABAFABB8AF6DA97EA98FA982
:102F000098AD20E030E04AEF54E40E941702DC0163
:102F1000CB0189AB9AABABABBCAB69A97AA98BA946
:102F20009CA920E030E040E85FE30E947103882321
:102F30002CF481E090E098AB8FA73FC069A97AA9F3
:102F40008BA99CA920E03FEF4FE757E40E941103B3
:102F500018164CF56DA97EA98FA998AD20E030E038
:102F600040E251E40E941702DC01CB01BC01CD011B
:102F70000E944100DC01CB0198AB8FA70FC088EC09
:102F800090E09EA78DA78DA59EA50197F1F79EA71E
:102F90008DA78FA598A9019798AB8FA78FA598A902
:102FA000009769F714C069A97AA98BA99CA90E9406
:102FB0004100DC01CB0198AB8FA78FA598A99CA7F6
:102FC0008BA78BA59CA50197F1F79CA78BA7CE019A
:102FD00085539F4F0E946E0FC0CAFE01EB56FF4FF4
:102FE00080819181833091050CF0B7CAFE01E057D2
:102FF000FF4F8081813009F0B0CA80E090E4ACE9F5
:10300000B5E48FA398A7A9A7BAA76FA178A589A5AA
:103010009AA520E030E04AEF54E40E941702DC0158
:10302000CB018BA39CA3ADA3BEA36BA17CA18DA15F
:103030009EA120E030E040E85FE30E947103882316
:103040002CF481E090E09AA389A33FC06BA17CA1FE
:103050008DA19EA120E03FEF4FE757E40E941103AE
:1030600018164CF56FA178A589A59AA520E030E047
:1030700040E251E40E941702DC01CB01BC01CD010A
:103080000E944100DC01CB019AA389A30FC088EC08
:1030900090E098A38F8F8F8D98A10197F1F798A357
:1030A0008F8F89A19AA101979AA389A389A19AA137
:1030B000009769F714C06BA17CA18DA19EA10E940D
:1030C0004100DC01CB019AA389A389A19AA19E8F1B
:1030D0008D8F8D8D9E8D0197F1F79E8F8D8F0E9424
:1030E000E30E80E090E4ACE9B5E4898F9A8FAB8F72
:1030F000BC8F698D7A8D8B8D9C8D20E030E04AEFFE
:1031000054E40E941702DC01CB018D8B9E8BAF8BA8
:10311000B88F6D897E898F89988D20E030E040E8F6
:103120005FE30E94710388232CF481E090E09C8B84
:103130008B8B3FC06D897E898F89988D20E03FEF12
:103140004FE757E40E94110318164CF5698D7A8DEC
:103150008B8D9C8D20E030E040E251E40E9417020C
:10316000DC01CB01BC01CD010E944100DC01CB019F
:103170009C8B8B8B0FC088EC90E09A8B898B898914
:103180009A890197F1F79A8B898B8B899C89019792
:103190009C8B8B8B8B899C89009769F714C06D89F8
:1031A0007E898F89988D0E944100DC01CB019C8B28
:1031B0008B8B8B899C89988B8F878F8598890197BA
:1031C000F1F7988B8F8780E060E00E94A30CCE011E
:1031D00082559F4F0E946E0F80E068E00E94A30C12
:1031E000CE018B549F4F0E946E0F81E063E00E94DE
:1031F000A30CCE0189559F4F0E946E0F80E090E492
:10320000ACE9B5E48B879C87AD87BE876B857C85F1
:103210008D859E8520E030E04AEF54E40E9417023D
:10322000DC01CB018F839887A987BA876F81788566
:1032300089859A8520E030E040E85FE30E947103D1
:1032400088232CF481E090E09E838D833FC06F81C2
:10325000788589859A8520E03FEF4FE757E40E9403
:10326000110318164CF56B857C858D859E8520E0B5
:1032700030E040E251E40E941702DC01CB01BC01C6
:10328000CD010E944100DC01CB019E838D830FC0E4
:1032900088EC90E09C838B838B819C810197F1F774
:1032A0009C838B838D819E8101979E838D838D81ED
:1032B0009E81009769F714C06F81788589859A850A
:1032C0000E944100DC01CB019E838D838D819E8114
:1032D0009A83898389819A810197F1F79A838983F7
:1032E0000E94E109FE01E157FF4F8083FE01E15793
:1032F000FF4F8081882309F430C9FE01E157FF4F59
:103300008081282F30E0C852DF4F39832883C85D81
:10331000D040C852DF4F88819981C85DD040823348
:10332000910519F1C852DF4FE881F981C85DD0409D
:10333000E333F10549F1C852DF4F28813981C85D77
:10334000D0402133310509F008C90E94E30E81E025
:103350000E942D10FE01E257FF4F8083FE01E257CD
:10336000FF4F80810E94C30CF8C80E94E30E80E0EA
:103370000E94F00FFE01E357FF4F8083CE018B5474
:103380009F4F0E94C30CE9C80E94E30EE6C8991B38
:1033900079E004C0991F961708F0961B881F7A954C
:1033A000C9F780950895AA1BBB1B51E107C0AA1F4E
:1033B000BB1FA617B70710F0A61BB70B881F991FD6
:1033C0005A95A9F780959095BC01CD0108952F924B
:1033D0003F924F925F926F927F928F929F92AF92A5
:1033E000BF92CF92DF92EF92FF920F931F93CF93F2
:1033F000DF93CDB7DEB7CA1BDB0B0FB6F894DEBF89
:103400000FBECDBF09942A88398848885F846E84AE
:103410007D848C849B84AA84B984C884DF80EE80F8
:10342000FD800C811B81AA81B981CE0FD11D0FB601
:10343000F894DEBF0FBECDBFED010895F894FFCF25
:10344000456E74657220796F75722049443A003375
:103450002D53746F7000312D54656D7000322D4CFA
:103460004452004572726F72210077656C636F6D14
:1034700065210053797374656D205265736574001E
:103480000000000000000000313233343536373898
:08349000393D2B2D2F2A30439A
:00000001FF
